S01D00005365637572697479204C6F67696E2053797374656D2E73726563F1
S11300000C942A000C9447000C9447000C9447006D
S11300100C9447000C9447000C9447000C94470040
S11300200C9447000C9447000C9447000C94470030
S11300300C9447000C9447000C9447000C94470020
S11300400C9447000C94F0060C9447000C94470061
S11300500C94470011241FBECFE5D8E0DEBFCDBF0E
S113006011E0A0E6B0E0EEEBFFE002C005900D92D7
S1130070A234B107D9F721E0A2E4B1E001C01D9296
S1130080A335B207E1F70E948E020C94DD070C94AD
S11300900000FB019C012B5F3F4FDC015D91CD0112
S11300A04191541305C0A217B307B9F781E008952D
S11300B080E0089510924C0180914C01853008F540
S11300C0E0914C01F0E0E95BFE4F10826091450144
S11300D070914601E0914C01F0E0E95BFE4F8081B4
S11300E00E94DF068091450190914601019690930C
S11300F046018093450180914C018F5F80934C01B0
S1130100DBCF089510924C0180914C018530D8F4D6
S11301106091450170914601E0914C01F0E0E95B8A
S1130120FE4F80810E94DF06809145019091460137
S11301300196909346018093450180914C018F5F15
S113014080934C01E1CF0895CF9310924C0180919C
S11301504C018530E0F4C0914C01809145019091AF
S113016046010E94E906EC2FF0E0E95BFE4F808334
S113017080914501909146010196909346018093A8
S1130180450180914C018F5F80934C01E0CFCF916A
S1130190089585E090E00E94E90680934201882357
S11301A089F00E945A001092420165E070E080E0FC
S11301B00E94DF06109252018091520166E070E0C5
S11301C00E94DF0680914201811108C00E94A400B0
S11301D086E090E00E94E906809352010895CF934F
S11301E0CCE061E08C2F0E941B06CF5FC031C9F7C1
S11301F0CF910895DF92EF92FF920F931F93CF93C5
S1130200DF9396E8E92E90E0F92ECCE0DBE660E09F
S11302108C2F0E941B0600E010E08AE1D82ED00E3D
S11302208D2D0E949506811115C0F701E00FF11F75
S1130230D0818FE19EE40197F1F700C000008D2D7D
S11302400E9495068823D9F38FE19EE40197F1F784
S113025000C000000F5F1F4F04301105F1F661E08C
S11302608C2F0E941B06CF5F94E0E90EF11CC03175
S113027071F68D2FDF91CF911F910F91FF90EF9029
S1130280DF900895CF93C82F60E081E00E941B06A1
S11302906C2F661F6627661F86E00E941B06C6FB3E
S11302A0662760F985E00E941B06C5FB662760F996
S11302B084E00E941B06C4FB662760F983E00E9469
S11302C01B0661E082E00E941B068FEC97E0019719
S11302D0F1F700C0000060E082E00E941B068FEC92
S11302E097E00197F1F700C00000C3FB662760F9AF
S11302F086E00E941B06C2FB662760F985E00E9427
S11303001B06C1FB662760F984E00E941B066C2F64
S1130310617083E00E941B0661E082E00E941B067C
S11303208FEC97E00197F1F700C0000060E082E0F5
S11303300E941B068FEC97E00197F1F700C00000C4
S1130340CF910895CF93C82F61E081E00E941B06EE
S11303506C2F661F6627661F86E00E941B06C6FB7D
S1130360662760F985E00E941B06C5FB662760F9D5
S113037084E00E941B06C4FB662760F983E00E94A8
S11303801B0661E082E00E941B068FEC97E0019758
S1130390F1F700C0000060E082E00E941B068FECD1
S11303A097E00197F1F700C00000C3FB662760F9EE
S11303B086E00E941B06C2FB662760F985E00E9466
S11303C01B06C1FB662760F984E00E941B066C2FA4
S11303D0617083E00E941B0661E082E00E941B06BC
S11303E08FEC97E00197F1F700C0000060E082E035
S11303F00E941B068FEC97E00197F1F700C0000004
S1130400CF9108952FE788E391E0215080409040F8
S1130410E1F700C0000082E00E94420188E20E94ED
S113042042018CE00E94420181E00E9442018FEC73
S113043097E00197F1F700C0000086E00C944201B8
S11304400F931F93CF938C01C0E0F801EC0FF11DC3
S11304508081882321F00E94A201CF5FF6CFCF9143
S11304601F910F9108950C94A2018F929F92AF92C5
S1130470BF92EF92FF921F93CF93DF93CDB7DEB776
S11304802A970FB6F894DEBF0FBECDBF4B015C01B7
S1130490CE0101967C018AE0F70111928A95E9F771
S11304A081149104A104B10419F480E30E94A2010F
S11304B0B501A401C7010E94430710E0F701E10F51
S11304C0F11D8081181720F40E94A2011F5FF6CF4E
S11304D02A960FB6F894DEBF0FBECDBFDF91CF9141
S11304E01F91FF90EF90BF90AF909F908F900895D1
S11304F0811102C0862F04C0813029F480E4860F64
S113050080680C944201089581E00E9442018FECBE
S113051097E00197F1F700C0000008950E94CC060F
S11305200E9402020E94EF000E94C90010924C0136
S1130530D0E0E12CF12CC0E010E000E0C0906000BD
S1130540D12CBC2CAD2C9C2C8D2C80915201813053
S113055009F041C060E080E00E94780286E990E002
S11305600E9420022FEF39E688E12150304080407C
S1130570E1F700C0000010924C0180914C018530DD
S113058008F5E0914C01F0E0E95BFE4F10826091C8
S1130590450170914601E0914C01F0E0E95BFE4FAA
S11305A080810E94DF068091450190914601019669
S11305B0909346018093450180914C018F5F809315
S11305C04C01DBCF1092520180915201B6010E947E
S11305D0DF0610924C0181E0E8124BC00E94FA0041
S11305E080538A30D8F7E0914C01F0E0E35BFE4F92
S11305F0808360914C0181E00E947802E0914C017B
S1130600F0E0E35BFE4F608170E080E090E00E94E8
S113061035029FEF20E732E0915020403040E1F76F
S113062000C0000060914C0181E00E9478028AE2DF
S11306300E94330280914C018F5F80934C01809122
S11306404C01853059F610924C0161E670E08DE45E
S113065091E00E944900813009F6109246011092FF
S113066045010E945A0060E085E10E941B06E12CCE
S113067001E00E94FA00782ED11190C0C1110AC085
S11306800E94840260E080E00E94780285EB90E0A2
S11306900E94200280ED870D8A3008F081C0E0912D
S11306A04C01F0E0E35BFE4F808360914C0181E0FC
S11306B00E947802E0914C01F0E0E35BFE4F608120
S11306C070E080E090E00E9435029FEF20E732E086
S11306D0915020403040E1F700C0000060914C018F
S11306E081E00E9478028AE20E94330280914C01E8
S11306F08F5F80934C0180914C01853009F050C08C
S113070010924C0167E471E08DE491E00E9449008D
S1130710813009F44EC00E94840260E080E00E94AF
S1130720780288EC90E00E9420028FEF94E32CE0A2
S1130730815090402040E1F700C000001F5F1092FC
S11307404C01133079F50E94840260E080E00E943D
S1130750780283ED90E00E94200261E080E10E9433
S11307601B063AEA86EE96E921E03150804090403B
S11307702040D9F7000060E080E10E941B060E943F
S11307808402F39432E0F3120FC061E085E10E9429
S11307901B06D1E0EE24E394F12C06C0D1E006C0A0
S11307A0C1E004C0C0E002C0C0E010E0013091F438
S11307B002C0D1E0C1E00E94840260E080E00E94B7
S11307C0780283EF90E00E94200261E081E10E94C0
S11307D01B0600E083E67812B8CED13011F0D0E0E9
S11307E0B4CEC0E00E94FA00D82FC11112C00E94FA
S11307F0840260E080E00E9478028FEF90E00E9423
S1130800200260E081E00E9478028FE091E00E9483
S1130810200280ED8D0F8A3010F0C1E0E3CFD13398
S113082021F410924C01D1E01DC0D233B1F7D1E0D4
S1130830C1E001E08ACE0E94840260E080E00E9470
S1130840780288EC90E00E9420028FEF94E32CE081
S1130850815090402040E1F700C000001F5F13303A
S113086009F461C00E94840260E080E00E94780282
S11308708FE191E00E9420020E94FA0080538A30A6
S1130880D8F701117FC0E0914C01F0E0E35BFE4F2B
S1130890808360914C0181E00E947802E0914C01D8
S11308A0F0E0E35BFE4F608170E080E090E00E9446
S11308B035029FEF20E732E0915020403040E1F7CD
S11308C000C0000060914C0181E00E9478028AE23D
S11308D00E94330280914C018F5F80934C01809180
S11308E04C01853049F610924C0167E471E08DE4C7
S11308F091E00E944900C82F813009F09CCF0E94EA
S1130900840260E080E00E9478028EE291E00E941E
S11309102002C0935201809152016B2D7A2D0E94C6
S1130920DF0601E0A9CF0E94840260E080E00E941B
S1130930780283ED90E00E94200260E081E10E9451
S11309401B0661E080E10E941B063AEA86EE96E906
S113095021E03150804090402040D9F7000060E011
S113096080E10E941B060E948402F39432E0F31299
S113097071C061E085E10E941B06D1E0EE24E3949E
S1130980F12C69C0013009F077CFE0914C01F0E01F
S1130990E95BFE4F808360914C0181E00E94780204
S11309A0E0914C01F0E0E95BFE4F608170E080E093
S11309B090E00E9435028FEF90E722E08150904052
S11309C02040E1F700C0000060914C0181E00E94EA
S11309D078028AE20E94330280914C018F5F8093F7
S11309E04C0180914C01853009F046CF10924C01A6
S11309F00E94840210924601109245010E948200D6
S1130A001092520180915201692D782D0E94DF06C7
S1130A100E94840260E080E00E9478028DE391E00D
S1130A200E9420023FEF82E597E0315080409040E1
S1130A30E1F700C0000060E080E00E94780283EFEC
S1130A4090E00E94200261E081E10E941B06C1E067
S1130A5000E07BCDD0E0C0E010E077CD982F977018
S1130A6061114BC0883078F44AB321E030E0092E9C
S1130A7001C0220F0A94EAF7342F322B3ABB3BB35E
S1130A80209523232BBB28EF280F283078F447B375
S1130A9021E030E0092E01C0220F0A94EAF7342F36
S1130AA0322B37BB38B32095232328BB20EF280FE4
S1130AB0283078F444B321E030E0092E01C0220F3D
S1130AC00A94EAF7342F322B34BB35B32095232311
S1130AD025BB8851883008F0ADC041B321E030E037
S1130AE0B90102C0660F771F9A95E2F7CB01942FE4
S1130AF0982B91BB92B380954DC0613009F04CC0E6
S1130B00883078F44AB321E030E0092E01C0220F86
S1130B100A94EAF72095342F32233ABB3BB32323BC
S1130B202BBB28EF280F283078F447B321E030E0BE
S1130B30092E01C0220F0A94EAF72095342F32239C
S1130B4037BB38B3232328BB20EF280F283078F491
S1130B5044B321E030E0092E01C0220F0A94EAF7E1
S1130B602095342F322334BB35B3232325BB88513E
S1130B70883008F05FC041B321E030E0B90102C021
S1130B80660F771F9A95E2F7CB018095942F9823EF
S1130B9091BB92B389234DC0623009F04BC08830B9
S1130BA078F44AB321E030E0092E01C0220F0A9400
S1130BB0EAF7322F309534233ABB3BB3232B2BBBBC
S1130BC028EF280F283078F447B321E030E0092ECD
S1130BD001C0220F0A94EAF7322F3095342337BB31
S1130BE038B3232B28BB20EF280F283078F444B3E4
S1130BF021E030E0092E01C0220F0A94EAF7322FD7
S1130C003095342334BB35B3232B25BB885188302E
S1130C1088F441B321E030E0B90102C0660F771FC8
S1130C209A95E2F7CB01962F9095942391BB92B3BA
S1130C30892B82BB0895982F977061113CC088302E
S1130C4058F44BB321E030E0092E01C0220F0A947E
S1130C50EAF7209524232BBB28EF280F283058F4DB
S1130C6048B321E030E0092E01C0220F0A94EAF7CC
S1130C702095242328BB20EF280F283058F445B3AF
S1130C8021E030E0092E01C0220F0A94EAF72095F2
S1130C90242325BB8851883008F046C042B321E0A4
S1130CA030E0B90102C0660F771F9A95E2F7CB01D5
S1130CB08095842338C06130B9F5883050F44BB343
S1130CC021E030E0092E01C0220F0A94EAF7242B18
S1130CD02BBB28EF280F283050F448B321E030E034
S1130CE0092E01C0220F0A94EAF7242B28BB20EF17
S1130CF0280F283050F445B321E030E0092E01C01C
S1130D00220F0A94EAF7242B25BB8851883060F41B
S1130D1042B321E030E0B90102C0660F771F9A9513
S1130D20E2F7CB01842B82BB0895482F47708830AB
S1130D3050F429B330E0042E02C0359527950A9467
S1130D40E2F7217001C020E098EF980F983048F442
S1130D5026B330E0042E02C0359527950A94E2F7B5
S1130D60217090EF980F983048F423B330E0042EAC
S1130D7002C0359527950A94E2F72170885188308E
S1130D8048F480B390E002C0959587954A95E2F7C0
S1130D90282F2170822F08950F931F93CF9306E677
S1130DA010E0C0E0F80161918F018C2F0E942E05A4
S1130DB0CF5FC032B9F7CF911F910F910895E19998
S1130DC0FECF7FBB6EBB8DBBF894E29AE19A789418
S1130DD00895E199FECF9FBB8EBBE09A8DB3089531
S1130DE01F920F920FB60F9211242F933F934F939C
S1130DF05F936F937F938F939F93AF93BF93EF937F
S1130E00FF93E0914301F0914401309709F0099573
S1130E10FF91EF91BF91AF919F918F917F916F91CE
S1130E205F914F913F912F910F900FBE0F901F90A4
S1130E3018959C0180E0F901E80FF11D9081992338
S1130E4011F08F5FF8CF0895CF93DF93EC010E94E8
S1130E50190790E0282F291B30E0492F50E0421752
S1130E60530774F4DE01A40FB51F4C9121503109CE
S1130E70FE01E20FF31F20812C9340839F5FEACF92
S1130E80DF91CF910895CF92DF92EF92FF920F936B
S1130E901F93CF93DF93EC01411551056105710553
S1130EA029F480E38883198680E037C077FF09C07E
S1130EB070956095509541955F4F6F4F7F4F01E05E
S1130EC001C000E010E08AE0C82ED12CE12CF12C06
S1130ED0CB01BA01A70196010E949C07DA01AB017C
S1130EE0BC01405D5F4F6F4F7F4FFE01E10FF11D6D
S1130EF04083A901BD0181E0810F411551056105C0
S1130F00710511F0182FE4CF013039F4FE01E80F18
S1130F10F11D8DE2808382E0810FFE01E80FF11D57
S1130F201082CE01DF91CF911F910F91FF90EF902E
S1130F30DF90CF900C942407052E97FB1EF40094A9
S1130F400E94B30757FD07D00E94BB0707FC03D0DC
S1130F504EF40C94B30750954095309521953F4F2E
S1130F604F4F5F4F089590958095709561957F4F91
S1130F708F4F9F4F0895A1E21A2EAA1BBB1BFD01A0
S1130F800DC0AA1FBB1FEE1FFF1FA217B307E40764
S1130F90F50720F0A21BB30BE40BF50B661F771FBC
S1130FA0881F991F1A9469F760957095809590959C
S1110FB09B01AC01BD01CF010895F894FFCF61
S1130FBE0601020304050100000000000001000008
S1130FCE0000000000000000020202000000010008
S1130FDE0202020202003738392F3435362A3132F2
S1130FEE332D63303D2B596F7572206C61737420F1
S1130FFE70617373776F7264206469646E277420F2
S113100E7361766500456E74657220746865205050
S113101E617373776F72640077726F6E672070619D
S113102E73730053797374656D206973206C6F63E9
S113103E6B656420666F72203230207365636F6E49
S113104E64730057454C434F4D4520414C49004372
S113105E68616E67652070617373776F72640031B7
S113106E2D594553202020202020322D4E4F00454F
S113107E6E746572206F6C64205061737300456EDC
S113108E746572206E6577205061737300444F4E01
S105109E450007
S9030000FC
